{
	"lec18.sol": {
		"lec18": {
			"abi": [
				{
					"inputs": [
						{
							"internalType": "uint256",
							"name": "_index",
							"type": "uint256"
						},
						{
							"internalType": "uint256",
							"name": "_age",
							"type": "uint256"
						}
					],
					"name": "AgeChange",
					"outputs": [],
					"stateMutability": "nonpayable",
					"type": "function"
				},
				{
					"inputs": [
						{
							"internalType": "uint256",
							"name": "_index",
							"type": "uint256"
						}
					],
					"name": "AgeDelete",
					"outputs": [],
					"stateMutability": "nonpayable",
					"type": "function"
				},
				{
					"inputs": [
						{
							"internalType": "uint256",
							"name": "_index",
							"type": "uint256"
						}
					],
					"name": "AgeGet",
					"outputs": [
						{
							"internalType": "uint256",
							"name": "",
							"type": "uint256"
						}
					],
					"stateMutability": "view",
					"type": "function"
				},
				{
					"inputs": [],
					"name": "AgeLength",
					"outputs": [
						{
							"internalType": "uint256",
							"name": "",
							"type": "uint256"
						}
					],
					"stateMutability": "view",
					"type": "function"
				},
				{
					"inputs": [],
					"name": "AgePop",
					"outputs": [],
					"stateMutability": "nonpayable",
					"type": "function"
				},
				{
					"inputs": [
						{
							"internalType": "uint256",
							"name": "_age",
							"type": "uint256"
						}
					],
					"name": "AgePush",
					"outputs": [],
					"stateMutability": "nonpayable",
					"type": "function"
				},
				{
					"inputs": [
						{
							"internalType": "uint256",
							"name": "",
							"type": "uint256"
						}
					],
					"name": "ageArray",
					"outputs": [
						{
							"internalType": "uint256",
							"name": "",
							"type": "uint256"
						}
					],
					"stateMutability": "view",
					"type": "function"
				}
			],
			"devdoc": {
				"kind": "dev",
				"methods": {},
				"version": 1
			},
			"evm": {
				"assembly": "    /* \"lec18.sol\":57:688  contract lec18{... */\n  mstore(0x40, 0x80)\n  callvalue\n  dup1\n  iszero\n  tag_1\n  jumpi\n  0x00\n  dup1\n  revert\ntag_1:\n  pop\n  dataSize(sub_0)\n  dup1\n  dataOffset(sub_0)\n  0x00\n  codecopy\n  0x00\n  return\nstop\n\nsub_0: assembly {\n        /* \"lec18.sol\":57:688  contract lec18{... */\n      mstore(0x40, 0x80)\n      callvalue\n      dup1\n      iszero\n      tag_1\n      jumpi\n      0x00\n      dup1\n      revert\n    tag_1:\n      pop\n      jumpi(tag_2, lt(calldatasize, 0x04))\n      shr(0xe0, calldataload(0x00))\n      dup1\n      0x90bb7a29\n      gt\n      tag_10\n      jumpi\n      dup1\n      0x90bb7a29\n      eq\n      tag_6\n      jumpi\n      dup1\n      0x98953723\n      eq\n      tag_7\n      jumpi\n      dup1\n      0xc1375ce8\n      eq\n      tag_8\n      jumpi\n      dup1\n      0xee5030af\n      eq\n      tag_9\n      jumpi\n      jump(tag_2)\n    tag_10:\n      dup1\n      0x38c9548b\n      eq\n      tag_3\n      jumpi\n      dup1\n      0x52c8fcfd\n      eq\n      tag_4\n      jumpi\n      dup1\n      0x7847c277\n      eq\n      tag_5\n      jumpi\n    tag_2:\n      0x00\n      dup1\n      revert\n        /* \"lec18.sol\":280:379  function AgeGet(uint256 _index)public view returns(uint256){... */\n    tag_3:\n      tag_11\n      0x04\n      dup1\n      calldatasize\n      sub\n      dup2\n      add\n      swap1\n      tag_12\n      swap2\n      swap1\n      tag_13\n      jump\t// in\n    tag_12:\n      tag_14\n      jump\t// in\n    tag_11:\n      mload(0x40)\n      tag_15\n      swap2\n      swap1\n      tag_16\n      jump\t// in\n    tag_15:\n      mload(0x40)\n      dup1\n      swap2\n      sub\n      swap1\n      return\n        /* \"lec18.sol\":202:274  function AgePush(uint256 _age)public{... */\n    tag_4:\n      tag_17\n      0x04\n      dup1\n      calldatasize\n      sub\n      dup2\n      add\n      swap1\n      tag_18\n      swap2\n      swap1\n      tag_13\n      jump\t// in\n    tag_18:\n      tag_19\n      jump\t// in\n    tag_17:\n      stop\n        /* \"lec18.sol\":77:102  uint256[] public ageArray */\n    tag_5:\n      tag_20\n      0x04\n      dup1\n      calldatasize\n      sub\n      dup2\n      add\n      swap1\n      tag_21\n      swap2\n      swap1\n      tag_13\n      jump\t// in\n    tag_21:\n      tag_22\n      jump\t// in\n    tag_20:\n      mload(0x40)\n      tag_23\n      swap2\n      swap1\n      tag_16\n      jump\t// in\n    tag_23:\n      mload(0x40)\n      dup1\n      swap2\n      sub\n      swap1\n      return\n        /* \"lec18.sol\":506:586  function AgeDelete(uint256 _index)public{... */\n    tag_6:\n      tag_24\n      0x04\n      dup1\n      calldatasize\n      sub\n      dup2\n      add\n      swap1\n      tag_25\n      swap2\n      swap1\n      tag_13\n      jump\t// in\n    tag_25:\n      tag_26\n      jump\t// in\n    tag_24:\n      stop\n        /* \"lec18.sol\":592:686  function AgeChange(uint256 _index, uint256 _age)public{... */\n    tag_7:\n      tag_27\n      0x04\n      dup1\n      calldatasize\n      sub\n      dup2\n      add\n      swap1\n      tag_28\n      swap2\n      swap1\n      tag_29\n      jump\t// in\n    tag_28:\n      tag_30\n      jump\t// in\n    tag_27:\n      stop\n        /* \"lec18.sol\":385:439  function AgePop()public{... */\n    tag_8:\n      tag_31\n      tag_32\n      jump\t// in\n    tag_31:\n      stop\n        /* \"lec18.sol\":109:196  function AgeLength()public view returns(uint256){... */\n    tag_9:\n      tag_33\n      tag_34\n      jump\t// in\n    tag_33:\n      mload(0x40)\n      tag_35\n      swap2\n      swap1\n      tag_16\n      jump\t// in\n    tag_35:\n      mload(0x40)\n      dup1\n      swap2\n      sub\n      swap1\n      return\n        /* \"lec18.sol\":280:379  function AgeGet(uint256 _index)public view returns(uint256){... */\n    tag_14:\n        /* \"lec18.sol\":331:338  uint256 */\n      0x00\n        /* \"lec18.sol\":356:364  ageArray */\n      dup1\n        /* \"lec18.sol\":365:371  _index */\n      dup3\n        /* \"lec18.sol\":356:372  ageArray[_index] */\n      dup2\n      sload\n      dup2\n      lt\n      tag_37\n      jumpi\n      tag_38\n      tag_39\n      jump\t// in\n    tag_38:\n    tag_37:\n      swap1\n      0x00\n      mstore\n      keccak256(0x00, 0x20)\n      add\n      sload\n        /* \"lec18.sol\":349:372  return ageArray[_index] */\n      swap1\n      pop\n        /* \"lec18.sol\":280:379  function AgeGet(uint256 _index)public view returns(uint256){... */\n      swap2\n      swap1\n      pop\n      jump\t// out\n        /* \"lec18.sol\":202:274  function AgePush(uint256 _age)public{... */\n    tag_19:\n        /* \"lec18.sol\":248:256  ageArray */\n      0x00\n        /* \"lec18.sol\":262:266  _age */\n      dup2\n        /* \"lec18.sol\":248:267  ageArray.push(_age) */\n      swap1\n      dup1\n      0x01\n      dup2\n      sload\n      add\n      dup1\n      dup3\n      sstore\n      dup1\n      swap2\n      pop\n      pop\n      0x01\n      swap1\n      sub\n      swap1\n      0x00\n      mstore\n      keccak256(0x00, 0x20)\n      add\n      0x00\n      swap1\n      swap2\n      swap1\n      swap2\n      swap1\n      swap2\n      pop\n      sstore\n        /* \"lec18.sol\":202:274  function AgePush(uint256 _age)public{... */\n      pop\n      jump\t// out\n        /* \"lec18.sol\":77:102  uint256[] public ageArray */\n    tag_22:\n      0x00\n      dup2\n      dup2\n      sload\n      dup2\n      lt\n      tag_43\n      jumpi\n      0x00\n      dup1\n      revert\n    tag_43:\n      swap1\n      0x00\n      mstore\n      keccak256(0x00, 0x20)\n      add\n      0x00\n      swap2\n      pop\n      swap1\n      pop\n      sload\n      dup2\n      jump\t// out\n        /* \"lec18.sol\":506:586  function AgeDelete(uint256 _index)public{... */\n    tag_26:\n        /* \"lec18.sol\":563:571  ageArray */\n      0x00\n        /* \"lec18.sol\":572:578  _index */\n      dup2\n        /* \"lec18.sol\":563:579  ageArray[_index] */\n      dup2\n      sload\n      dup2\n      lt\n      tag_46\n      jumpi\n      tag_47\n      tag_39\n      jump\t// in\n    tag_47:\n    tag_46:\n      swap1\n      0x00\n      mstore\n      keccak256(0x00, 0x20)\n      add\n        /* \"lec18.sol\":556:579  delete ageArray[_index] */\n      0x00\n      swap1\n      sstore\n        /* \"lec18.sol\":506:586  function AgeDelete(uint256 _index)public{... */\n      pop\n      jump\t// out\n        /* \"lec18.sol\":592:686  function AgeChange(uint256 _index, uint256 _age)public{... */\n    tag_30:\n        /* \"lec18.sol\":675:679  _age */\n      dup1\n        /* \"lec18.sol\":656:664  ageArray */\n      0x00\n        /* \"lec18.sol\":665:671  _index */\n      dup4\n        /* \"lec18.sol\":656:672  ageArray[_index] */\n      dup2\n      sload\n      dup2\n      lt\n      tag_50\n      jumpi\n      tag_51\n      tag_39\n      jump\t// in\n    tag_51:\n    tag_50:\n      swap1\n      0x00\n      mstore\n      keccak256(0x00, 0x20)\n      add\n        /* \"lec18.sol\":656:679  ageArray[_index] = _age */\n      dup2\n      swap1\n      sstore\n      pop\n        /* \"lec18.sol\":592:686  function AgeChange(uint256 _index, uint256 _age)public{... */\n      pop\n      pop\n      jump\t// out\n        /* \"lec18.sol\":385:439  function AgePop()public{... */\n    tag_32:\n        /* \"lec18.sol\":418:426  ageArray */\n      0x00\n        /* \"lec18.sol\":418:432  ageArray.pop() */\n      dup1\n      sload\n      dup1\n      tag_54\n      jumpi\n      tag_55\n      tag_56\n      jump\t// in\n    tag_55:\n    tag_54:\n      0x01\n      swap1\n      sub\n      dup2\n      dup2\n      swap1\n      0x00\n      mstore\n      keccak256(0x00, 0x20)\n      add\n      0x00\n      swap1\n      sstore\n      swap1\n      sstore\n        /* \"lec18.sol\":385:439  function AgePop()public{... */\n      jump\t// out\n        /* \"lec18.sol\":109:196  function AgeLength()public view returns(uint256){... */\n    tag_34:\n        /* \"lec18.sol\":149:156  uint256 */\n      0x00\n        /* \"lec18.sol\":174:182  ageArray */\n      dup1\n        /* \"lec18.sol\":174:189  ageArray.length */\n      dup1\n      sload\n      swap1\n      pop\n        /* \"lec18.sol\":167:189  return ageArray.length */\n      swap1\n      pop\n        /* \"lec18.sol\":109:196  function AgeLength()public view returns(uint256){... */\n      swap1\n      jump\t// out\n        /* \"#utility.yul\":7:146   */\n    tag_60:\n        /* \"#utility.yul\":53:58   */\n      0x00\n        /* \"#utility.yul\":91:97   */\n      dup2\n        /* \"#utility.yul\":78:98   */\n      calldataload\n        /* \"#utility.yul\":69:98   */\n      swap1\n      pop\n        /* \"#utility.yul\":107:140   */\n      tag_62\n        /* \"#utility.yul\":134:139   */\n      dup2\n        /* \"#utility.yul\":107:140   */\n      tag_63\n      jump\t// in\n    tag_62:\n        /* \"#utility.yul\":7:146   */\n      swap3\n      swap2\n      pop\n      pop\n      jump\t// out\n        /* \"#utility.yul\":152:481   */\n    tag_13:\n        /* \"#utility.yul\":211:217   */\n      0x00\n        /* \"#utility.yul\":260:262   */\n      0x20\n        /* \"#utility.yul\":248:257   */\n      dup3\n        /* \"#utility.yul\":239:246   */\n      dup5\n        /* \"#utility.yul\":235:258   */\n      sub\n        /* \"#utility.yul\":231:263   */\n      slt\n        /* \"#utility.yul\":228:347   */\n      iszero\n      tag_65\n      jumpi\n        /* \"#utility.yul\":266:345   */\n      tag_66\n      tag_67\n      jump\t// in\n    tag_66:\n        /* \"#utility.yul\":228:347   */\n    tag_65:\n        /* \"#utility.yul\":386:387   */\n      0x00\n        /* \"#utility.yul\":411:464   */\n      tag_68\n        /* \"#utility.yul\":456:463   */\n      dup5\n        /* \"#utility.yul\":447:453   */\n      dup3\n        /* \"#utility.yul\":436:445   */\n      dup6\n        /* \"#utility.yul\":432:454   */\n      add\n        /* \"#utility.yul\":411:464   */\n      tag_60\n      jump\t// in\n    tag_68:\n        /* \"#utility.yul\":401:464   */\n      swap2\n      pop\n        /* \"#utility.yul\":357:474   */\n      pop\n        /* \"#utility.yul\":152:481   */\n      swap3\n      swap2\n      pop\n      pop\n      jump\t// out\n        /* \"#utility.yul\":487:961   */\n    tag_29:\n        /* \"#utility.yul\":555:561   */\n      0x00\n        /* \"#utility.yul\":563:569   */\n      dup1\n        /* \"#utility.yul\":612:614   */\n      0x40\n        /* \"#utility.yul\":600:609   */\n      dup4\n        /* \"#utility.yul\":591:598   */\n      dup6\n        /* \"#utility.yul\":587:610   */\n      sub\n        /* \"#utility.yul\":583:615   */\n      slt\n        /* \"#utility.yul\":580:699   */\n      iszero\n      tag_70\n      jumpi\n        /* \"#utility.yul\":618:697   */\n      tag_71\n      tag_67\n      jump\t// in\n    tag_71:\n        /* \"#utility.yul\":580:699   */\n    tag_70:\n        /* \"#utility.yul\":738:739   */\n      0x00\n        /* \"#utility.yul\":763:816   */\n      tag_72\n        /* \"#utility.yul\":808:815   */\n      dup6\n        /* \"#utility.yul\":799:805   */\n      dup3\n        /* \"#utility.yul\":788:797   */\n      dup7\n        /* \"#utility.yul\":784:806   */\n      add\n        /* \"#utility.yul\":763:816   */\n      tag_60\n      jump\t// in\n    tag_72:\n        /* \"#utility.yul\":753:816   */\n      swap3\n      pop\n        /* \"#utility.yul\":709:826   */\n      pop\n        /* \"#utility.yul\":865:867   */\n      0x20\n        /* \"#utility.yul\":891:944   */\n      tag_73\n        /* \"#utility.yul\":936:943   */\n      dup6\n        /* \"#utility.yul\":927:933   */\n      dup3\n        /* \"#utility.yul\":916:925   */\n      dup7\n        /* \"#utility.yul\":912:934   */\n      add\n        /* \"#utility.yul\":891:944   */\n      tag_60\n      jump\t// in\n    tag_73:\n        /* \"#utility.yul\":881:944   */\n      swap2\n      pop\n        /* \"#utility.yul\":836:954   */\n      pop\n        /* \"#utility.yul\":487:961   */\n      swap3\n      pop\n      swap3\n      swap1\n      pop\n      jump\t// out\n        /* \"#utility.yul\":967:1085   */\n    tag_74:\n        /* \"#utility.yul\":1054:1078   */\n      tag_76\n        /* \"#utility.yul\":1072:1077   */\n      dup2\n        /* \"#utility.yul\":1054:1078   */\n      tag_77\n      jump\t// in\n    tag_76:\n        /* \"#utility.yul\":1049:1052   */\n      dup3\n        /* \"#utility.yul\":1042:1079   */\n      mstore\n        /* \"#utility.yul\":967:1085   */\n      pop\n      pop\n      jump\t// out\n        /* \"#utility.yul\":1091:1313   */\n    tag_16:\n        /* \"#utility.yul\":1184:1188   */\n      0x00\n        /* \"#utility.yul\":1222:1224   */\n      0x20\n        /* \"#utility.yul\":1211:1220   */\n      dup3\n        /* \"#utility.yul\":1207:1225   */\n      add\n        /* \"#utility.yul\":1199:1225   */\n      swap1\n      pop\n        /* \"#utility.yul\":1235:1306   */\n      tag_79\n        /* \"#utility.yul\":1303:1304   */\n      0x00\n        /* \"#utility.yul\":1292:1301   */\n      dup4\n        /* \"#utility.yul\":1288:1305   */\n      add\n        /* \"#utility.yul\":1279:1285   */\n      dup5\n        /* \"#utility.yul\":1235:1306   */\n      tag_74\n      jump\t// in\n    tag_79:\n        /* \"#utility.yul\":1091:1313   */\n      swap3\n      swap2\n      pop\n      pop\n      jump\t// out\n        /* \"#utility.yul\":1400:1477   */\n    tag_77:\n        /* \"#utility.yul\":1437:1444   */\n      0x00\n        /* \"#utility.yul\":1466:1471   */\n      dup2\n        /* \"#utility.yul\":1455:1471   */\n      swap1\n      pop\n        /* \"#utility.yul\":1400:1477   */\n      swap2\n      swap1\n      pop\n      jump\t// out\n        /* \"#utility.yul\":1483:1663   */\n    tag_56:\n        /* \"#utility.yul\":1531:1608   */\n      0x4e487b7100000000000000000000000000000000000000000000000000000000\n        /* \"#utility.yul\":1528:1529   */\n      0x00\n        /* \"#utility.yul\":1521:1609   */\n      mstore\n        /* \"#utility.yul\":1628:1632   */\n      0x31\n        /* \"#utility.yul\":1625:1626   */\n      0x04\n        /* \"#utility.yul\":1618:1633   */\n      mstore\n        /* \"#utility.yul\":1652:1656   */\n      0x24\n        /* \"#utility.yul\":1649:1650   */\n      0x00\n        /* \"#utility.yul\":1642:1657   */\n      revert\n        /* \"#utility.yul\":1669:1849   */\n    tag_39:\n        /* \"#utility.yul\":1717:1794   */\n      0x4e487b7100000000000000000000000000000000000000000000000000000000\n        /* \"#utility.yul\":1714:1715   */\n      0x00\n        /* \"#utility.yul\":1707:1795   */\n      mstore\n        /* \"#utility.yul\":1814:1818   */\n      0x32\n        /* \"#utility.yul\":1811:1812   */\n      0x04\n        /* \"#utility.yul\":1804:1819   */\n      mstore\n        /* \"#utility.yul\":1838:1842   */\n      0x24\n        /* \"#utility.yul\":1835:1836   */\n      0x00\n        /* \"#utility.yul\":1828:1843   */\n      revert\n        /* \"#utility.yul\":1978:2095   */\n    tag_67:\n        /* \"#utility.yul\":2087:2088   */\n      0x00\n        /* \"#utility.yul\":2084:2085   */\n      dup1\n        /* \"#utility.yul\":2077:2089   */\n      revert\n        /* \"#utility.yul\":2101:2223   */\n    tag_63:\n        /* \"#utility.yul\":2174:2198   */\n      tag_89\n        /* \"#utility.yul\":2192:2197   */\n      dup2\n        /* \"#utility.yul\":2174:2198   */\n      tag_77\n      jump\t// in\n    tag_89:\n        /* \"#utility.yul\":2167:2172   */\n      dup2\n        /* \"#utility.yul\":2164:2199   */\n      eq\n        /* \"#utility.yul\":2154:2217   */\n      tag_90\n      jumpi\n        /* \"#utility.yul\":2213:2214   */\n      0x00\n        /* \"#utility.yul\":2210:2211   */\n      dup1\n        /* \"#utility.yul\":2203:2215   */\n      revert\n        /* \"#utility.yul\":2154:2217   */\n    tag_90:\n        /* \"#utility.yul\":2101:2223   */\n      pop\n      jump\t// out\n\n    auxdata: 0xa264697066735822122048b21b70038945fe39944b014fb91b25f8ecbd1e9c50438a65c1951657347b9a64736f6c63430008070033\n}\n",
				"bytecode": {
					"linkReferences": {},
					"object": "608060405234801561001057600080fd5b506103bd806100206000396000f3fe608060405234801561001057600080fd5b506004361061007d5760003560e01c806390bb7a291161005b57806390bb7a29146100fe578063989537231461011a578063c1375ce814610136578063ee5030af146101405761007d565b806338c9548b1461008257806352c8fcfd146100b25780637847c277146100ce575b600080fd5b61009c6004803603810190610097919061026c565b61015e565b6040516100a991906102e8565b60405180910390f35b6100cc60048036038101906100c7919061026c565b610185565b005b6100e860048036038101906100e3919061026c565b6101b1565b6040516100f591906102e8565b60405180910390f35b6101186004803603810190610113919061026c565b6101d5565b005b610134600480360381019061012f9190610299565b6101fa565b005b61013e610221565b005b61014861024b565b60405161015591906102e8565b60405180910390f35b60008082815481106101735761017261033c565b5b90600052602060002001549050919050565b600081908060018154018082558091505060019003906000526020600020016000909190919091505550565b600081815481106101c157600080fd5b906000526020600020016000915090505481565b600081815481106101e9576101e861033c565b5b906000526020600020016000905550565b806000838154811061020f5761020e61033c565b5b90600052602060002001819055505050565b60008054806102335761023261030d565b5b60019003818190600052602060002001600090559055565b60008080549050905090565b60008135905061026681610370565b92915050565b6000602082840312156102825761028161036b565b5b600061029084828501610257565b91505092915050565b600080604083850312156102b0576102af61036b565b5b60006102be85828601610257565b92505060206102cf85828601610257565b9150509250929050565b6102e281610303565b82525050565b60006020820190506102fd60008301846102d9565b92915050565b6000819050919050565b7f4e487b7100000000000000000000000000000000000000000000000000000000600052603160045260246000fd5b7f4e487b7100000000000000000000000000000000000000000000000000000000600052603260045260246000fd5b600080fd5b61037981610303565b811461038457600080fd5b5056fea264697066735822122048b21b70038945fe39944b014fb91b25f8ecbd1e9c50438a65c1951657347b9a64736f6c63430008070033",
					"opcodes": "PUSH1 0x80 PUSH1 0x40 MSTORE CALLVALUE DUP1 ISZERO PUSH2 0x10 JUMPI PUSH1 0x0 DUP1 REVERT JUMPDEST POP PUSH2 0x3BD DUP1 PUSH2 0x20 PUSH1 0x0 CODECOPY PUSH1 0x0 RETURN INVALID PUSH1 0x80 PUSH1 0x40 MSTORE CALLVALUE DUP1 ISZERO PUSH2 0x10 JUMPI PUSH1 0x0 DUP1 REVERT JUMPDEST POP PUSH1 0x4 CALLDATASIZE LT PUSH2 0x7D JUMPI PUSH1 0x0 CALLDATALOAD PUSH1 0xE0 SHR DUP1 PUSH4 0x90BB7A29 GT PUSH2 0x5B JUMPI DUP1 PUSH4 0x90BB7A29 EQ PUSH2 0xFE JUMPI DUP1 PUSH4 0x98953723 EQ PUSH2 0x11A JUMPI DUP1 PUSH4 0xC1375CE8 EQ PUSH2 0x136 JUMPI DUP1 PUSH4 0xEE5030AF EQ PUSH2 0x140 JUMPI PUSH2 0x7D JUMP JUMPDEST DUP1 PUSH4 0x38C9548B EQ PUSH2 0x82 JUMPI DUP1 PUSH4 0x52C8FCFD EQ PUSH2 0xB2 JUMPI DUP1 PUSH4 0x7847C277 EQ PUSH2 0xCE JUMPI JUMPDEST PUSH1 0x0 DUP1 REVERT JUMPDEST PUSH2 0x9C PUSH1 0x4 DUP1 CALLDATASIZE SUB DUP2 ADD SWAP1 PUSH2 0x97 SWAP2 SWAP1 PUSH2 0x26C JUMP JUMPDEST PUSH2 0x15E JUMP JUMPDEST PUSH1 0x40 MLOAD PUSH2 0xA9 SWAP2 SWAP1 PUSH2 0x2E8 JUMP JUMPDEST PUSH1 0x40 MLOAD DUP1 SWAP2 SUB SWAP1 RETURN JUMPDEST PUSH2 0xCC PUSH1 0x4 DUP1 CALLDATASIZE SUB DUP2 ADD SWAP1 PUSH2 0xC7 SWAP2 SWAP1 PUSH2 0x26C JUMP JUMPDEST PUSH2 0x185 JUMP JUMPDEST STOP JUMPDEST PUSH2 0xE8 PUSH1 0x4 DUP1 CALLDATASIZE SUB DUP2 ADD SWAP1 PUSH2 0xE3 SWAP2 SWAP1 PUSH2 0x26C JUMP JUMPDEST PUSH2 0x1B1 JUMP JUMPDEST PUSH1 0x40 MLOAD PUSH2 0xF5 SWAP2 SWAP1 PUSH2 0x2E8 JUMP JUMPDEST PUSH1 0x40 MLOAD DUP1 SWAP2 SUB SWAP1 RETURN JUMPDEST PUSH2 0x118 PUSH1 0x4 DUP1 CALLDATASIZE SUB DUP2 ADD SWAP1 PUSH2 0x113 SWAP2 SWAP1 PUSH2 0x26C JUMP JUMPDEST PUSH2 0x1D5 JUMP JUMPDEST STOP JUMPDEST PUSH2 0x134 PUSH1 0x4 DUP1 CALLDATASIZE SUB DUP2 ADD SWAP1 PUSH2 0x12F SWAP2 SWAP1 PUSH2 0x299 JUMP JUMPDEST PUSH2 0x1FA JUMP JUMPDEST STOP JUMPDEST PUSH2 0x13E PUSH2 0x221 JUMP JUMPDEST STOP JUMPDEST PUSH2 0x148 PUSH2 0x24B JUMP JUMPDEST PUSH1 0x40 MLOAD PUSH2 0x155 SWAP2 SWAP1 PUSH2 0x2E8 JUMP JUMPDEST PUSH1 0x40 MLOAD DUP1 SWAP2 SUB SWAP1 RETURN JUMPDEST PUSH1 0x0 DUP1 DUP3 DUP2 SLOAD DUP2 LT PUSH2 0x173 JUMPI PUSH2 0x172 PUSH2 0x33C JUMP JUMPDEST JUMPDEST SWAP1 PUSH1 0x0 MSTORE PUSH1 0x20 PUSH1 0x0 KECCAK256 ADD SLOAD SWAP1 POP SWAP2 SWAP1 POP JUMP JUMPDEST PUSH1 0x0 DUP2 SWAP1 DUP1 PUSH1 0x1 DUP2 SLOAD ADD DUP1 DUP3 SSTORE DUP1 SWAP2 POP POP PUSH1 0x1 SWAP1 SUB SWAP1 PUSH1 0x0 MSTORE PUSH1 0x20 PUSH1 0x0 KECCAK256 ADD PUSH1 0x0 SWAP1 SWAP2 SWAP1 SWAP2 SWAP1 SWAP2 POP SSTORE POP JUMP JUMPDEST PUSH1 0x0 DUP2 DUP2 SLOAD DUP2 LT PUSH2 0x1C1 JUMPI PUSH1 0x0 DUP1 REVERT JUMPDEST SWAP1 PUSH1 0x0 MSTORE PUSH1 0x20 PUSH1 0x0 KECCAK256 ADD PUSH1 0x0 SWAP2 POP SWAP1 POP SLOAD DUP2 JUMP JUMPDEST PUSH1 0x0 DUP2 DUP2 SLOAD DUP2 LT PUSH2 0x1E9 JUMPI PUSH2 0x1E8 PUSH2 0x33C JUMP JUMPDEST JUMPDEST SWAP1 PUSH1 0x0 MSTORE PUSH1 0x20 PUSH1 0x0 KECCAK256 ADD PUSH1 0x0 SWAP1 SSTORE POP JUMP JUMPDEST DUP1 PUSH1 0x0 DUP4 DUP2 SLOAD DUP2 LT PUSH2 0x20F JUMPI PUSH2 0x20E PUSH2 0x33C JUMP JUMPDEST JUMPDEST SWAP1 PUSH1 0x0 MSTORE PUSH1 0x20 PUSH1 0x0 KECCAK256 ADD DUP2 SWAP1 SSTORE POP POP POP JUMP JUMPDEST PUSH1 0x0 DUP1 SLOAD DUP1 PUSH2 0x233 JUMPI PUSH2 0x232 PUSH2 0x30D JUMP JUMPDEST JUMPDEST PUSH1 0x1 SWAP1 SUB DUP2 DUP2 SWAP1 PUSH1 0x0 MSTORE PUSH1 0x20 PUSH1 0x0 KECCAK256 ADD PUSH1 0x0 SWAP1 SSTORE SWAP1 SSTORE JUMP JUMPDEST PUSH1 0x0 DUP1 DUP1 SLOAD SWAP1 POP SWAP1 POP SWAP1 JUMP JUMPDEST PUSH1 0x0 DUP2 CALLDATALOAD SWAP1 POP PUSH2 0x266 DUP2 PUSH2 0x370 JUMP JUMPDEST SWAP3 SWAP2 POP POP JUMP JUMPDEST PUSH1 0x0 PUSH1 0x20 DUP3 DUP5 SUB SLT ISZERO PUSH2 0x282 JUMPI PUSH2 0x281 PUSH2 0x36B JUMP JUMPDEST JUMPDEST PUSH1 0x0 PUSH2 0x290 DUP5 DUP3 DUP6 ADD PUSH2 0x257 JUMP JUMPDEST SWAP2 POP POP SWAP3 SWAP2 POP POP JUMP JUMPDEST PUSH1 0x0 DUP1 PUSH1 0x40 DUP4 DUP6 SUB SLT ISZERO PUSH2 0x2B0 JUMPI PUSH2 0x2AF PUSH2 0x36B JUMP JUMPDEST JUMPDEST PUSH1 0x0 PUSH2 0x2BE DUP6 DUP3 DUP7 ADD PUSH2 0x257 JUMP JUMPDEST SWAP3 POP POP PUSH1 0x20 PUSH2 0x2CF DUP6 DUP3 DUP7 ADD PUSH2 0x257 JUMP JUMPDEST SWAP2 POP POP SWAP3 POP SWAP3 SWAP1 POP JUMP JUMPDEST PUSH2 0x2E2 DUP2 PUSH2 0x303 JUMP JUMPDEST DUP3 MSTORE POP POP JUMP JUMPDEST PUSH1 0x0 PUSH1 0x20 DUP3 ADD SWAP1 POP PUSH2 0x2FD PUSH1 0x0 DUP4 ADD DUP5 PUSH2 0x2D9 JUMP JUMPDEST SWAP3 SWAP2 POP POP JUMP JUMPDEST PUSH1 0x0 DUP2 SWAP1 POP SWAP2 SWAP1 POP JUMP JUMPDEST PUSH32 0x4E487B7100000000000000000000000000000000000000000000000000000000 PUSH1 0x0 MSTORE PUSH1 0x31 PUSH1 0x4 MSTORE PUSH1 0x24 PUSH1 0x0 REVERT JUMPDEST PUSH32 0x4E487B7100000000000000000000000000000000000000000000000000000000 PUSH1 0x0 MSTORE PUSH1 0x32 PUSH1 0x4 MSTORE PUSH1 0x24 PUSH1 0x0 REVERT JUMPDEST PUSH1 0x0 DUP1 REVERT JUMPDEST PUSH2 0x379 DUP2 PUSH2 0x303 JUMP JUMPDEST DUP2 EQ PUSH2 0x384 JUMPI PUSH1 0x0 DUP1 REVERT JUMPDEST POP JUMP INVALID LOG2 PUSH5 0x6970667358 0x22 SLT KECCAK256 BASEFEE 0xB2 SHL PUSH17 0x38945FE39944B014FB91B25F8ECBD1E9C POP NUMBER DUP11 PUSH6 0xC1951657347B SWAP11 PUSH5 0x736F6C6343 STOP ADDMOD SMOD STOP CALLER "
				},
				"gasEstimates": {
					"creation": {
						"codeDepositCost": "191400",
						"executionCost": "232",
						"totalCost": "191632"
					},
					"external": {
						"AgeChange(uint256,uint256)": "infinite",
						"AgeDelete(uint256)": "7595",
						"AgeGet(uint256)": "infinite",
						"AgeLength()": "2511",
						"AgePop()": "29489",
						"AgePush(uint256)": "46852",
						"ageArray(uint256)": "infinite"
					}
				},
				"methodIdentifiers": {
					"AgeChange(uint256,uint256)": "98953723",
					"AgeDelete(uint256)": "90bb7a29",
					"AgeGet(uint256)": "38c9548b",
					"AgeLength()": "ee5030af",
					"AgePop()": "c1375ce8",
					"AgePush(uint256)": "52c8fcfd",
					"ageArray(uint256)": "7847c277"
				}
			},
			"storageLayout": {
				"storage": [
					{
						"astId": 4,
						"contract": "lec18.sol:lec18",
						"label": "ageArray",
						"offset": 0,
						"slot": "0",
						"type": "t_array(t_uint256)dyn_storage"
					}
				],
				"types": {
					"t_array(t_uint256)dyn_storage": {
						"base": "t_uint256",
						"encoding": "dynamic_array",
						"label": "uint256[]",
						"numberOfBytes": "32"
					},
					"t_uint256": {
						"encoding": "inplace",
						"label": "uint256",
						"numberOfBytes": "32"
					}
				}
			},
			"userdoc": {
				"kind": "user",
				"methods": {},
				"version": 1
			}
		}
	}
}